:100000000C9435000C945D000C945D000C945D0024
:100010000C945D000C945D000C945D000C945D00EC
:100020000C945D000C945D000C9460020C947903B8
:100030000C945D000C948C030C945D000C945D009A
:100040000C9416020C945D000C94E4010C94BE0117
:100050000C945D000C945D000C945D000C945D00AC
:100060000C945D000C945D00F70511241FBECFEFCA
:10007000D8E0DEBFCDBF11E0A0E0B1E0EEE1F1E1FC
:1000800002C005900D92AC32B107D9F721E0ACE285
:10009000B1E001C01D92AF3FB207E1F710E0C5E348
:1000A000D0E004C02197FE010E948208C433D1072A
:1000B000C9F70E94A3030C948D080C940000CF9202
:1000C000DF92EF92FF920F931F93CF93DF936C0118
:1000D0007A018B01C0E0D0E0CE15DF0589F0D801B0
:1000E0006D918D01D601ED91FC910190F081E02D93
:1000F000C6010995892B11F47E0102C02196ECCF2F
:10010000C701DF91CF911F910F91FF90EF90DF908A
:10011000CF900895089580E090E00895FC01538DFC
:10012000448D252F30E0842F90E0821B930B5417D1
:1001300010F0CF96089501970895FC01918D828D5E
:10014000981761F0828DDF01A80FB11D5D968C912B
:10015000928D9F5F9F73928F90E008958FEF9FEF36
:100160000895FC01918D828D981731F0828DE80FF2
:10017000F11D858D90E008958FEF9FEF0895FC01AC
:10018000918D228D892F90E0805C9F4F821B910979
:100190008F739927089582E691E00E94BF0021E0C5
:1001A000892B09F420E0822F0895FC01848DDF0162
:1001B000A80FB11DA35ABF4F2C91848D90E00196DA
:1001C0008F739927848FA689B7892C93A089B189C9
:1001D0008C9180648C93938D848D981306C00288D3
:1001E000F389E02D80818F7D80830895EF92FF92C7
:1001F0000F931F93CF93DF93EC0181E0888F9B8D4A
:100200008C8D981305C0E889F989808185FD24C00B
:10021000F62E0B8D10E00F5F1F4F0F731127E02E8E
:100220008C8DE8120CC00FB607FCFACFE889F9896B
:10023000808185FFF5CFCE010E94D500F1CF8B8D57
:10024000FE01E80FF11DE35AFF4FF0820B8FEA89A0
:10025000FB898081806207C0EE89FF896083E8891D
:10026000F98980818064808381E090E0DF91CF9183
:100270001F910F91FF90EF900895CF93DF93EC01C2
:10028000888D8823C9F0EA89FB89808185FD05C0B6
:10029000A889B9898C9186FD0FC00FB607FCF5CFF0
:1002A000808185FFF2CFA889B9898C9185FFEDCF38
:1002B000CE010E94D500E7CFDF91CF91089580E075
:1002C00090E0892B29F00E94CB0081110C94000052
:1002D0000895009769F0FC0101900020E9F731973B
:1002E000AF01481B590BBC0182E691E00C945F0002
:1002F00080E090E008958F929F92AF92BF920F930B
:100300001F93CF93DF93CDB7DEB7A1970FB6F894C5
:10031000DEBF0FBECDBF19A2423008F44AE08E0105
:100320000F5D1F4F842E912CA12CB12CA50194019F
:100330000E946008E62FB901CA0101501109EA3094
:1003400014F4E05D01C0E95CD801EC93232B242B6D
:10035000252B61F7C8010E946901A1960FB6F89498
:10036000DEBF0FBECDBFDF91CF911F910F91BF9028
:10037000AF909F908F9008950E9488081F920F92CF
:100380000FB60F9211242F933F934F935F936F9368
:100390007F938F939F93AF93BF93EF93FF9382E6E7
:1003A00091E00E94D500FF91EF91BF91AF919F9195
:1003B0008F917F916F915F914F913F912F910F900E
:1003C0000FBE0F901F9018951F920F920FB60F92AD
:1003D00011242F938F939F93EF93FF93E0917201DA
:1003E000F09173018081E0917801F091790182FDB3
:1003F00012C0908180917B018F5F8F7320917C016F
:10040000821751F0E0917B01F0E0EE59FE4F958F9D
:1004100080937B0101C08081FF91EF919F918F912B
:100420002F910F900FBE0F901F9018951F920F9253
:100430000FB60F9211242F933F938F939F93AF93F7
:10044000BF938091390190913A01A0913B01B09105
:100450003C013091380123E0230F2D3720F4019621
:10046000A11DB11D05C026E8230F0296A11DB11DD7
:10047000209338018093390190933A01A0933B0176
:10048000B0933C018091340190913501A0913601E7
:10049000B09137010196A11DB11D80933401909355
:1004A0003501A0933601B0933701BF91AF919F9171
:1004B0008F913F912F910F900FBE0F901F90189525
:1004C0001F920F920FB60F921124CF92DF92EF92EC
:1004D000FF920F931F932F933F934F935F936F93CD
:1004E0007F938F939F93AF93BF93EF93FF9320914D
:1004F000860030918700C9013091810020E42327D4
:1005000020938100B59A20913D0130913E01D9019F
:10051000B09B05C08F3F0FE7900708F4C1C0209142
:10052000810026FFADC020913F013091400121158F
:10053000310509F44FC02130310509F054C0009154
:1005400030011091310120913201309133014091FD
:100550004E0150914F016091500170915101480F2F
:10056000591F6A1F7B1F401B510B620B730B40937B
:100570004E0150934F016093500170935101C09010
:100580004101D0904201E0904301F090440140913C
:1005900046015091470160914801709149018C01D9
:1005A0009D01041B150B260B370BC901B8010E94D6
:1005B00037079B01AC01C701B6010E9496060E9455
:1005C000080760932C0170932D0180932E01909366
:1005D0002F014CC08093460190934701A09348019E
:1005E000B093490143C00091300110913101209135
:1005F00032013091330140914E0150914F01609191
:10060000500170915101480F591F6A1F7B1F401BF9
:10061000510B620B730B40934E0150934F0160934B
:1006200050017093510120913F013091400127709A
:100630003327232BD9F400914601109147012091D3
:1006400048013091490140912C0150912D01609158
:100650002E0170912F016C017D01C01AD10AE20AAE
:10066000F30AC416D506E606F706E8F480913F01C2
:100670009091400101969093400180933F0122C0E8
:100680009C01205C3346309389002093880080933E
:10069000300190933101A0933201B093330112C025
:1006A000D90111963CCF80934A0190934B01A093BE
:1006B0004C01B0934D0110926F0083E286BB81E044
:1006C00080934501FF91EF91BF91AF919F918F91E1
:1006D0007F916F915F914F913F912F911F910F915A
:1006E000FF90EF90DF90CF900F900FBE0F901F9074
:1006F00018951F920F920FB60F9211248F9310929C
:100700006F0083E286BB82E0809345018F910F905A
:100710000FBE0F901F9018951F920F920FB60F9259
:1007200011248F939F9380913D0190913E010196FA
:1007300090933E0180933D019F918F910F900FBE4A
:100740000F901F901895CF93DF9300D000D0CDB7B6
:10075000DEB7789484B5826084BD84B5816084BD41
:1007600085B5826085BD85B5816085BD80916E004F
:10077000816080936E001092810080918100826080
:1007800080938100809181008160809381008091BD
:1007900080008160809380008091B10084608093AC
:1007A000B1008091B00081608093B00080917A00A8
:1007B000846080937A0080917A00826080937A00CE
:1007C00080917A00816080937A0080917A008068BD
:1007D00080937A001092C100E0917201F091730150
:1007E00082E08083E0916E01F0916F011082E091D0
:1007F0007001F091710180E1808310927A01E091A3
:100800007601F091770186E08083E0917401F091A8
:100810007501808180618083E0917401F0917501A0
:10082000808188608083E0917401F09175018081FE
:1008300080688083E0917401F091750180818F7DE3
:1008400080838AE8882E89EA982E86ECA82E8FE489
:10085000B82E90E4292E9CE9392E01E413E22FB73B
:10086000F8948091390190913A01A0913B01B091A7
:100870003C012FBF80935E0190935F01A0936001C4
:10088000B093610140915A0150915B0160915C010C
:1008900070915D01841B950BA60BB70B883E9340AE
:1008A000A105B1050CF4DBC0C0905601D0905701F2
:1008B000E0905801F090590120E030E0A901C70113
:1008C000B6010E949106882309F4C9C0A7019601C8
:1008D000C701B6010E945B08882319F082E191E00C
:1008E0001AC026013701E89477F82FEF3FEF4FE762
:1008F0005FE7C301B2010E945B0881110FC02FEFB7
:100900003FEF4FE75FE7C301B2010E94910618165F
:100910002CF486E191E00E94690182C02FEF3FEF45
:100920004FE75FE4C701B6010E94E90718161CF4FF
:100930008AE191E0F0CF2FEF3FEF4FE75FECC70187
:10094000B6010E94910687FDF3CF20E030E0A901B7
:10095000C701B6010E94910687FF0FC0E0916201B6
:10096000F09163010190F081E02D6DE282E691E06B
:100970000995F7FAF094F7F8F0942AE037ED43EA96
:100980005BE3C701B6010E9425062B013C010E94D2
:1009900008076B017C010E9437079B01AC01C30172
:1009A000B2010E9424062B013C014AE0C701B601B6
:1009B0000E947B01E0916201F09163010190F0815E
:1009C000E02D6EE282E691E0099520E030E040E221
:1009D00051E4C301B2010E94EE076B017C010E9449
:1009E00008072B01612C712C4AE0C301B2010E945F
:1009F0007B01C301B2010E9437079B01AC01C70113
:100A0000B6010E94240620E030E040E251E40E945A
:100A1000EE070E94080780E090E04AE00E947B0118
:100A20008EE191E00E9469011092560110925701E7
:100A300010925801109259012FB7F8948091390102
:100A400090913A01A0913B01B0913C012FBF80935E
:100A50005A0190935B01A0935C01B0935D0180917A
:100A60005E0190915F01A0916001B09161014091A0
:100A70005201509153016091540170915501841BB2
:100A8000950BA60BB70B843F9140A105B1050CF463
:100A9000ABC08092410190924201A0924301B0927A
:100AA0004401109245011092400110923F011092B2
:100AB0004E0110924F01109250011092510110926C
:100AC0003E0110923D011092800010928100109220
:100AD0008500109284003092890020928800009353
:100AE000810016BB10936F0080914501813069F041
:100AF000D8F3823009F065C081E291E00E9469017B
:100B00008EE191E00E9469015CC060914E0170919C
:100B10004F018091500190915101C0904A01D090B5
:100B20004B01E0904C01F0904D0120914601309135
:100B30004701409148015091490129833A834B83F1
:100B40005C830E9437072B013C01C701B601298154
:100B50003A814B815C81621B730B840B950B0E9465
:100B600037079B01AC01C301B2010E9496066B01DD
:100B70007C019B01AC010E94EE072DE33AE047EBBC
:100B80005FEB0E94EE072B013C012CE53FE846E5B8
:100B900053E4C701B6010E94EE079B01AC01C301FB
:100BA000B2010E94250623E333E349E852E40E94A0
:100BB00024066093560170935701809358019093D7
:100BC00059012FB7F8948091390190913A01A09181
:100BD0003B01B0913C012FBF809352019093530190
:100BE000A0935401B09355010E945F0138CEE2E614
:100BF000F1E01382128288EE93E0A0E0B0E08483FB
:100C00009583A683B78384E091E09183808385EC0C
:100C100090E09587848784EC90E09787868780ECC6
:100C200090E0918B808B81EC90E0938B828B82ECB7
:100C300090E0958B848B86EC90E0978B868B118E61
:100C4000128E138E148E08955058BB27AA270E9427
:100C50003C060C94AF070E94A10738F00E94A80739
:100C600020F039F49F3F19F426F40C949E070EF4FB
:100C7000E095E7FB0C949807E92F0E94C00758F312
:100C8000BA17620773078407950720F079F4A6F571
:100C90000C94E2070EF4E0950B2EBA2FA02D0B0159
:100CA000B90190010C01CA01A0011124FF27591BB1
:100CB00099F0593F50F4503E68F11A16F040A22FB7
:100CC000232F342F4427585FF3CF46953795279528
:100CD000A795F0405395C9F77EF41F16BA0B620B27
:100CE000730B840BBAF09150A1F0FF0FBB1F661F6E
:100CF000771F881FC2F70EC0BA0F621F731F841FB1
:100D000048F4879577956795B795F7959E3F08F0D6
:100D1000B0CF9395880F08F09927EE0F9795879598
:100D200008950E94740708F481E008950E94AA06BD
:100D30000C94AF070E94A80758F00E94A10740F04A
:100D400029F45F3F29F00C94980751110C94E307A4
:100D50000C949E070E94C00768F39923B1F35523B2
:100D600091F3951B550BBB27AA27621773078407BE
:100D700038F09F5F5F4F220F331F441FAA1FA9F354
:100D800035D00E2E3AF0E0E832D091505040E69542
:100D9000001CCAF72BD0FE2F29D0660F771F881FA3
:100DA000BB1F261737074807AB07B0E809F0BB0B96
:100DB000802DBF01FF2793585F4F3AF09E3F5105AA
:100DC00078F00C9498070C94E3075F3FE4F3983EA7
:100DD000D4F3869577956795B795F7959F5FC9F793
:100DE000880F911D9695879597F90895E1E0660F14
:100DF000771F881FBB1F621773078407BA0720F08D
:100E0000621B730B840BBA0BEE1F88F7E0950895F5
:100E10000E94C80788F09F5798F0B92F9927B751BB
:100E2000B0F0E1F0660F771F881F991F1AF0BA958E
:100E3000C9F714C0B13091F00E94E207B1E0089503
:100E40000C94E207672F782F8827B85F39F0B93FF5
:100E5000CCF3869577956795B395D9F73EF4909541
:100E60008095709561957F4F8F4F9F4F0895E894BF
:100E700009C097FB3EF490958095709561957F4FE2
:100E80008F4F9F4F9923A9F0F92F96E9BB27939590
:100E9000F695879577956795B795F111F8CFFAF4A0
:100EA000BB0F11F460FF1BC06F5F7F4F8F4F9F4FD1
:100EB00016C0882311F096E911C0772321F09EE82F
:100EC000872F762F05C0662371F096E8862F70E095
:100ED00060E02AF09A95660F771F881FDAF7880F6F
:100EE0009695879597F90895990F0008550FAA0BC5
:100EF000E0E8FEEF16161706E807F907C0F012162D
:100F00001306E407F50798F0621B730B840B950B2F
:100F100039F40A2661F0232B242B252B21F4089584
:100F20000A2609F4A140A6958FEF811D811D089521
:100F300097F99F6780E870E060E008959FEF80EC8C
:100F4000089500240A94161617061806090608952F
:100F500000240A9412161306140605060895092E95
:100F60000394000C11F4882352F0BB0F40F4BF2B04
:100F700011F460FF04C06F5F7F4F8F4F9F4F089544
:100F800057FD9058440F551F59F05F3F71F047953A
:100F9000880F97FB991F61F09F3F79F0879508951F
:100FA000121613061406551FF2CF4695F1DF08C03E
:100FB000161617061806991FF1CF8695710561055B
:100FC00008940895E894BB2766277727CB0197F903
:100FD00008950E94740708F48FEF08950E94010895
:100FE0000C94AF070E94A10738F00E94A80720F0D8
:100FF000952311F00C9498070C949E0711240C94DF
:10100000E3070E94C00770F3959FC1F3950F50E06E
:10101000551F629FF001729FBB27F00DB11D639FAA
:10102000AA27F00DB11DAA1F649F6627B00DA11D50
:10103000661F829F2227B00DA11D621F739FB00DF6
:10104000A11D621F839FA00D611D221F749F332766
:10105000A00D611D231F849F600D211D822F762FFF
:101060006A2F11249F5750409AF0F1F088234AF0DC
:10107000EE0FFF1FBB1F661F771F881F9150504048
:10108000A9F79E3F510580F00C9498070C94E30754
:101090005F3FE4F3983ED4F3869577956795B795CF
:1010A000F795E7959F5FC1F7FE2B880F911D9695E9
:1010B000879597F908950E947407880B990B0895F6
:1010C000A1E21A2EAA1BBB1BFD010DC0AA1FBB1F4C
:1010D000EE1FFF1FA217B307E407F50720F0A21BBE
:1010E000B30BE40BF50B661F771F881F991F1A942B
:1010F00069F760957095809590959B01AC01BD0155
:10110000CF010895EE0FFF1F0590F491E02D099493
:0E11100081E090E0F8940C948D08F894FFCFE5
:10111E0000000000F6005F008E003D01BF009D0044
:10112E00B1006E616E00696E66006F7666000D0A24
:0C113E00006E6F2073656E736F7200000E
:00000001FF
